:100000000C9434000C9446000C9446000C9446006A
:100010000C9446000C9446000C9446000C94460048
:100020000C9446000C9446000C9446000C94460038
:100030000C9446000C9446000C94B2000C944101C0
:100040000C9446000C9446000C9446000C94460018
:100050000C9446000C94D0010C9446000C9446007D
:100060000C9446000C94460011241FBECFEFD8E03C
:10007000DEBFCDBF21E0A0E0B1E001C01D92A43100
:10008000B207E1F70E9410020C9487020C94000062
:1000900080E480937C008FE880937A0083E08093F3
:1000A0007B000895ECE7F0E09081987F8770892BC2
:1000B0008083EAE7F0E0808180648083808186FD30
:1000C000FDCF80917800909179000895219A08954C
:1000D000EF92FF920F931F93CF93DF93EC01CB012D
:1000E000BA01A90198010E9482021816A4F540E005
:1000F00050E060E87FE380E090E0A0E8BFEBC13033
:10010000D10589F01CF4209741F01FC0C230D10501
:1001100081F0C330D10599F018C0F70140835183B5
:1001200062837383ECCFF70180839183A283B383CF
:10013000E6CFF7014083518362837383E0CFF701F9
:1001400080839183A283B383DACFF7011082118277
:1001500012821382D4CFDF91CF911F910F91FF9024
:10016000EF9008951F920F920FB60F9211244F92A5
:100170005F926F927F928F929F92AF92BF92EF9217
:10018000FF920F931F932F933F934F935F936F9320
:100190007F938F939F93AF93BF93EF93FF9380E0F1
:1001A0000E945200BC0180E090E00E942102609316
:1001B000100170931101809312019093130181E05B
:1001C0000E945200BC0180E090E00E9421024B019D
:1001D0005C01609308017093090180930A01909378
:1001E0000B0140901001509011016090120170902D
:1001F0001301A30192010E941C0288237CF40F2E9C
:10020000F0E0EF2EF1E0FF2EF02D95018401B30117
:10021000A20180E090E00E94680016C0A301920154
:10022000C501B4010E948202181674F40F2EF0E08A
:10023000EF2EF1E0FF2EF02D93018201B501A40114
:1002400081E090E00E946800FF91EF91BF91AF9133
:100250009F918F917F916F915F914F913F912F91DE
:100260001F910F91FF90EF90BF90AF909F908F9054
:100270007F906F905F904F900F900FBE0F901F90E8
:1002800018951F920F920FB60F9211244F925F9202
:100290006F927F928F929F92AF92BF92EF92FF9256
:1002A0000F931F932F933F934F935F936F937F937E
:1002B0008F939F93AF93BF93EF93FF9382E00E943E
:1002C0005200BC0180E090E00E9421026093040192
:1002D00070930501809306019093070183E00E94CB
:1002E0005200BC0180E090E00E9421024B015C01C1
:1002F00060930C0170930D0180930E0190930F0198
:100300004090040150900501609006017090070133
:10031000A30192010E941C0288237CF40F2EF0E0BE
:10032000EF2EF1E0FF2EF02D95018401B301A20123
:1003300082E090E00E94680016C0A3019201C5010E
:10034000B4010E948202181674F40F2EF0E0EF2E12
:10035000F1E0FF2EF02D93018201B501A40183E0AD
:1003600090E00E946800FF91EF91BF91AF919F9143
:100370008F917F916F915F914F913F912F911F913D
:100380000F91FF90EF90BF90AF909F908F907F90D4
:100390006F905F904F900F900FBE0F901F90189529
:1003A0001F920F920FB60F9211248F939F938091FB
:1003B0007800909179009F918F910F900FBE0F90D0
:1003C0001F9018958CE787BD88EF88BD84B5826043
:1003D00084BD85B5846085BDEEE6F0E080818660F1
:1003E00080830895E0E8F0E08081836C8083E1E819
:1003F000F0E080818861808308958CE78093B3006A
:10040000E0EBF0E0808182608083E1EBF0E08081CE
:1004100084608083E0E7F0E08081826080830895DB
:100420000E94E2010E94F2010E94FD010E94480028
:100430000E9466007894FFCF0E945E0208F481E07B
:100440000895E89409C097FB3EF4909580957095C7
:1004500061957F4F8F4F9F4F9923A9F0F92F96E910
:10046000BB279395F695879577956795B795F11185
:10047000F8CFFAF4BB0F11F460FF1BC06F5F7F4F22
:100480008F4F9F4F16C0882311F096E911C0772334
:1004900021F09EE8872F762F05C0662371F096E83D
:1004A000862F70E060E02AF09A95660F771F881F0C
:1004B000DAF7880F9695879597F90895990F0008B0
:1004C000550FAA0BE0E8FEEF16161706E807F90726
:1004D000C0F012161306E407F50798F0621B730BC1
:1004E000840B950B39F40A2661F0232B242B252B42
:1004F00021F408950A2609F4A140A6958FEF811DE5
:10050000811D08950E945E0208F48FEF0895F8940B
:02051000FFCF1B
:00000001FF
