S01700004D616E65757665722053797374656D2E7372656325
S11300000C9463000C9480000C9480000C94800089
S11300100C9480000C9480000C9480000C9480005C
S11300200C9480000C9480000C9480000C94FC01CF
S11300300C9480000C9480000C9480000C9480003C
S11300400C9480000C9480000C9480000C9480002C
S11300500C9480000C9480000C9480000C9480001C
S11300600C9480000C9480000C9480000C9480000C
S11300700C9480000C9480000C9480000C948000FC
S11300800C9480000C9480000C9480000C948000EC
S11300900C9480000C9480000C9480000C948000DC
S11300A00C9480000C9480000C9480000C948000CC
S11300B00C94800017010501070109010B010D01D2
S11300C00F011101130111241FBECFEFD8E0DEBFD1
S11300D0CDBF11E0A0E0B1E0E0EFF8E002C0059090
S11300E00D92A230B107D9F721E0A2E0B1E001C03E
S11300F01D92A930B207E1F70E94F2000C94760435
S11301000C94000080E480937C0087E880937A005C
S1130110089588E09DE39093890080938800E1E846
S1130120F0E0808188608083AFE6B0E08C918260EB
S11301308C938081856080830895259A8AB18C632D
S11301408AB9279887B1807F87B98BB18C608BB9C6
S11301500895ECE7F0E09081987F8770892B808385
S1130160EAE7F0E0808180648083808186FDFDCFB2
S113017080917800909179000895CF93DF93DC010A
S11301809C012A5F3F4FE0ECF0E0C6ECD0E09081A8
S113019095FFFDCF8D918883A217B307C1F7E0ECDB
S11301A0F0E0808185FFFDCF80E28093C600E2E02D
S11301B0F1E0808381838283838384838583DF91D9
S11301C0CF9108951092C50087E68093C400E1ECB6
S11301D0F0E0808188618083E2ECF0E080818660D9
S11301E0808308950E94E2000E9482000E94890098
S11301F00E949D007894FFCF019789309105A8F45F
S1130200865A9F4FFC010C94700482E3089583E3A3
S1130210089584E3089585E3089586E3089587E3C4
S1130220089588E3089589E3089580E3089581E3B8
S113023008954F925F926F927F928F929F92AF92A6
S1130240BF92CF92DF92EF92FF920F931F93CF93BF
S1130250DF934B01BC01990F880B990B0E944E034D
S11302606B017C0120E030E0A9010E949F028823F9
S113027024F4F7FAF094F7F8F09420E030E040E842
S11302805FE3C701B6010E94FE038823F4F1C0E0D6
S1130290D0E020E030E040E251E4C701B6010E9422
S11302A0A4026B017C01219620E030E040E85FE38A
S11302B00E94FE0388236CF72BC0A016B10629F117
S11302C020E030E040E251E4C701B6010E9403049B
S11302D06B017C010E9416032B013C01072E000CCC
S11302E0880B990B0E944E039B01AC01C701B60118
S11302F00E9432026B017C01C2010E94FC00F801E1
S113030081938F01CE17DF07C1F6F40116820BC06B
S11303101C161D06D4F78401C80DD91D5401F6E03E
S1130320AF0EB11CCDCFDF91CF911F910F91FF90F4
S1130330EF90DF90CF90BF90AF909F908F907F9081
S11303406F905F904F900895EF92FF920F931F93D9
S1130350CF93DF9380E00E94A900EC0162E071E09A
S11303600E94190182E091E00E94BD0081E00E9498
S1130370A9008C0162E071E00E94190182E091E021
S11303800E94BD00CE01801B910B8333910514F0B4
S11303905B9A05C08E3C2FEF92070CF45A98E12C1F
S11303A0F12C00E010E0C29685369105D8F034E1D6
S11303B0E316F104B9F080E00E94A900EC0181E0A9
S11303C00E94A9009E01281B390BC9010F5F1F4F12
S11303D00E3B30E1130739F72FEFE21AF20A00E07F
S11303E010E0E1CF8BB18C608BB9DF91CF911F917D
S11303F00F91FF90EF9008951F920F920FB60F92F6
S113040011242F933F934F935F936F937F938F9315
S11304109F93AF93BF93EF93FF93809100019091CB
S11304200101892B71F010920101109200011D9AB3
S11304300E94A4011D9A81E090E0909301018093B1
S11304400001FF91EF91BF91AF919F918F917F91A7
S11304506F915F914F913F912F910F900FBE0F902D
S11304601F9018955058BB27AA270E944A020C9443
S1130470C4030E94B60338F00E94BD0320F039F48F
S11304809F3F19F426F40C94B3030EF4E095E7FBB4
S11304900C94AD03E92F0E94D50358F3BA176207F1
S11304A073078407950720F079F4A6F50C94F703F5
S11304B00EF4E0950B2EBA2FA02D0B01B90190017B
S11304C00C01CA01A0011124FF27591B99F0593FBF
S11304D050F4503E68F11A16F040A22F232F342F07
S11304E04427585FF3CF469537952795A795F04055
S11304F05395C9F77EF41F16BA0B620B730B840B6A
S1130500BAF09150A1F0FF0FBB1F661F771F881F21
S1130510C2F70EC0BA0F621F731F841F48F4879579
S113052077956795B795F7959E3F08F0B0CF93956B
S1130530880F08F09927EE0F9795879508950E94E4
S1130540890308F481E008950E94B8020C94C4035E
S11305500E94BD0358F00E94B60340F029F45F3FA7
S113056029F00C94AD0351110C94F8030C94B303CB
S11305700E94D50368F39923B1F3552391F3951B96
S1130580550BBB27AA2762177307840738F09F5FB0
S11305905F4F220F331F441FAA1FA9F335D00E2E1D
S11305A03AF0E0E832D091505040E695001CCAF78A
S11305B02BD0FE2F29D0660F771F881FBB1F26174D
S11305C037074807AB07B0E809F0BB0B802DBF0124
S11305D0FF2793585F4F3AF09E3F510578F00C94F3
S11305E0AD030C94F8035F3FE4F3983ED4F386958F
S11305F077956795B795F7959F5FC9F7880F911D14
S11306009695879597F90895E1E0660F771F881FFF
S1130610BB1F621773078407BA0720F0621B730BB2
S1130620840BBA0BEE1F88F7E09508950E941D0312
S11306306894B1110C94F80308950E94DD0388F0C6
S11306409F5798F0B92F9927B751B0F0E1F0660F92
S1130650771F881F991F1AF0BA95C9F714C0B130D3
S113066091F00E94F703B1E008950C94F703672F0B
S1130670782F8827B85F39F0B93FCCF38695779502
S11306806795B395D9F73EF49095809570956195EB
S11306907F4F8F4F9F4F0895E89409C097FB3EF416
S11306A090958095709561957F4F8F4F9F4F9923BB
S11306B0A9F0F92F96E9BB279395F6958795779539
S11306C06795B795F111F8CFFAF4BB0F11F460FFF9
S11306D01BC06F5F7F4F8F4F9F4F16C0882311F051
S11306E096E911C0772321F09EE8872F762F05C065
S11306F0662371F096E8862F70E060E02AF09A9500
S1130700660F771F881FDAF7880F9695879597F9F4
S11307100895990F0008550FAA0BE0E8FEEF16168E
S11307201706E807F907C0F012161306E407F507E1
S113073098F0621B730B840B950B39F40A2661F055
S1130740232B242B252B21F408950A2609F4A140F8
S1130750A6958FEF811D811D089597F99F6780E805
S113076070E060E008959FEF80EC089500240A94FF
S11307701616170618060906089500240A94121678
S11307801306140605060895092E0394000C11F4AB
S1130790882352F0BB0F40F4BF2B11F460FF04C058
S11307A06F5F7F4F8F4F9F4F089557FD9058440FB1
S11307B0551F59F05F3F71F04795880F97FB991FBC
S11307C061F09F3F79F08795089512161306140679
S11307D0551FF2CF4695F1DF08C016161706180606
S11307E0991FF1CF86957105610508940895E894E1
S11307F0BB2766277727CB0197F908950E948903C1
S113080008F48FEF08950E9416040C94C4030E9408
S1130810B60338F00E94BD0320F0952311F00C9428
S1130820AD030C94B30311240C94F8030E94D50374
S113083070F3959FC1F3950F50E0551F629FF0012F
S1130840729FBB27F00DB11D639FAA27F00DB11D48
S1130850AA1F649F6627B00DA11D661F829F2227D1
S1130860B00DA11D621F739FB00DA11D621F839F58
S1130870A00D611D221F749F3327A00D611D231F2E
S1130880849F600D211D822F762F6A2F11249F577C
S113089050409AF0F1F088234AF0EE0FFF1FBB1F7F
S11308A0661F771F881F91505040A9F79E3F51053E
S11308B080F00C94AD030C94F8035F3FE4F3983E8E
S11308C0D4F3869577956795B795F795E7959F5FE8
S11308D0C1F7FE2B880F911D9695879597F908957A
S11308E0EE0FFF1F0590F491E02D0994F894FFCFCB
S10508F0010001
S9030000FC
