S01700004D616E65757665722053797374656D2E7372656325
S11300000C9463000C9475000C9475000C947500AA
S11300100C9475000C9475000C9475000C94750088
S11300200C9475000C9475000C9475000C94750078
S11300300C9475000C9475000C9475000C94750068
S11300400C9475000C9475000C9475000C94750058
S11300500C9475000C9475000C9475000C94750048
S11300600C9475000C9475000C9475000C94750038
S11300700C9475000C9475000C9475000C94750028
S11300800C9475000C9475000C9475000C94750018
S11300900C9475000C9475000C9475000C94750008
S11300A00C9475000C9475000C9475000C947500F8
S11300B00C947500DA00C800CA00CC00CE00D00051
S11300C0D200D400D60011241FBECFEFD8E0DEBF8B
S11300D0CDBF21E0A0E0B1E001C01D92A930B2077C
S11300E0E1F70E9459010C94B7030C940000ECE76B
S11300F0F0E09081987F8770892B8083EAE7F0E0B5
S1130100808180648083808186FDFDCF809178002A
S113011090917900089580E480937C0087E880932F
S11301207A000895CF93DF93DC019C012A5F3F4F4F
S1130130E0ECF0E0C6ECD0E0908195FFFDCF8D912E
S11301408883A217B307C1F7E0ECF0E0808185FF54
S1130150FDCF80E28093C600DF91CF910895109285
S1130160C50087E68093C400E1ECF0E080818861FB
S11301708083E2ECF0E080818660808308950197BB
S113018089309105A8F4865A9F4FFC010C94B10361
S113019082E3089583E3089584E3089585E308954D
S11301A086E3089587E3089588E3089589E308952D
S11301B080E3089581E308954F925F926F927F9256
S11301C08F929F92AF92BF92CF92DF92EF92FF9263
S11301D00F931F93CF93DF934B01BC0180E090E01A
S11301E00E948D026B017C0120E030E040E85FE377
S11301F00E941B038823F4F1C0E0D0E020E030E04B
S113020040E251E4C701B6010E94E5016B017C01A3
S1130210219620E030E040E85FE30E941B0388233E
S11302206CF72BC0A016B10629F120E030E040E2C3
S113023051E4C701B6010E9420036B017C010E94B6
S113024057022B013C01072E000C880B990B0E94CE
S11302508F029B01AC01C701B6010E9478016B01BA
S11302607C01C2010E94BF00F80181938F01CE1767
S1130270DF07C1F6F40116820BC01C161D06D4F765
S11302808401C80DD91D5401F6E0AF0EB11CCDCFC9
S1130290DF91CF911F910F91FF90EF90DF90CF905E
S11302A0BF90AF909F908F907F906F905F904F9092
S11302B00895259A279838980E94AF000E948B00D1
S11302C078941F99FECF1F9BFECF1D9A10920801B0
S11302D080E00E947700909307018093060160E01C
S11302E071E00E94DC0080E091E00E949200E9CF7E
S11302F05058BB27AA270E9490010C94E1020E9447
S1130300D30238F00E94DA0220F039F49F3F19F446
S113031026F40C94D0020EF4E095E7FB0C94CA0288
S1130320E92F0E94F20258F3BA1762077307840791
S1130330950720F079F4A6F50C9414030EF4E095D7
S11303400B2EBA2FA02D0B01B90190010C01CA018B
S1130350A0011124FF27591B99F0593F50F4503E36
S113036068F11A16F040A22F232F342F4427585F28
S1130370F3CF469537952795A795F0405395C9F740
S11303807EF41F16BA0B620B730B840BBAF09150F8
S1130390A1F0FF0FBB1F661F771F881FC2F70EC097
S11303A0BA0F621F731F841F48F48795779567956A
S11303B0B795F7959E3F08F0B0CF9395880F08F056
S11303C09927EE0F9795879508950E94F9010C944B
S11303D0E1020E94DA0258F00E94D30240F029F4AC
S11303E05F3F29F00C94CA0251110C9415030C942C
S11303F0D0020E94F20268F39923B1F3552391F3DA
S1130400951B550BBB27AA2762177307840738F07F
S11304109F5F5F4F220F331F441FAA1FA9F335D0DC
S11304200E2E3AF0E0E832D091505040E695001C90
S1130430CAF72BD0FE2F29D0660F771F881FBB1F4A
S1130440261737074807AB07B0E809F0BB0B802D28
S1130450BF01FF2793585F4F3AF09E3F510578F054
S11304600C94CA020C9415035F3FE4F3983ED4F352
S1130470869577956795B795F7959F5FC9F7880F28
S1130480911D9695879597F90895E1E0660F771F7A
S1130490881FBB1F621773078407BA0720F0621B0B
S11304A0730B840BBA0BEE1F88F7E09508950E9436
S11304B05E026894B1110C94150308950E94FA0227
S11304C088F09F5798F0B92F9927B751B0F0E1F011
S11304D0660F771F881F991F1AF0BA95C9F714C0C1
S11304E0B13091F00E941403B1E008950C94140308
S11304F0672F782F8827B85F39F0B93FCCF38695FA
S113050077956795B395D9F73EF490958095709556
S113051061957F4F8F4F9F4F0895E89409C097FBD3
S11305203EF490958095709561957F4F8F4F9F4FC6
S11305309923A9F0F92F96E9BB279395F69587950A
S113054077956795B795F111F8CFFAF4BB0F11F4CD
S113055060FF1BC06F5F7F4F8F4F9F4F16C0882374
S113056011F096E911C0772321F09EE8872F762FAA
S113057005C0662371F096E8862F70E060E02AF0EB
S11305809A95660F771F881FDAF7880F96958795D7
S113059097F9089597F99F6780E870E060E00895FF
S11305A09FEF80EC089500240A9416161706180687
S11305B00906089500240A94121613061406050663
S11305C00895092E0394000C11F4882352F0BB0FF4
S11305D040F4BF2B11F460FF04C06F5F7F4F8F4F57
S11305E09F4F089557FD9058440F551F59F05F3F92
S11305F071F04795880F97FB991F61F09F3F79F041
S113060087950895121613061406551FF2CF4695C2
S1130610F1DF08C0161617061806991FF1CF869544
S11306207105610508940895E894BB276627772728
S1130630CB0197F908950E948D0308F48FEF089574
S11306400E9433030C94E1020E94D30238F00E940A
S1130650DA0220F0952311F00C94CA020C94D00213
S113066011240C9415030E94F20270F3959FC1F3B8
S1130670950F50E0551F629FF001729FBB27F00D4C
S1130680B11D639FAA27F00DB11DAA1F649F6627A1
S1130690B00DA11D661F829F2227B00DA11D621FF0
S11306A0739FB00DA11D621F839FA00D611D221FAA
S11306B0749F3327A00D611D231F849F600D211D8E
S11306C0822F762F6A2F11249F5750409AF0F1F011
S11306D088234AF0EE0FFF1FBB1F661F771F881F7A
S11306E091505040A9F79E3F510580F00C94CA02E6
S11306F00C9415035F3FE4F3983ED4F38695779505
S11307006795B795F795E7959F5FC1F7FE2B880F1F
S1130710911D9695879597F90895990F0008550F9F
S1130720AA0BE0E8FEEF16161706E807F907C0F073
S113073012161306E407F50798F0621B730B840B7B
S1130740950B39F40A2661F0232B242B252B21F455
S113075008950A2609F4A140A6958FEF811D811DF5
S11307600895EE0FFF1F0590F491E02D0994F8947D
S1050770FFCFB5
S9030000FC
